:020000040800F2
:1000000000500020A12300084D09000855090008F0
:100010005D090008650900086D090008000000007E
:10002000000000000000000000000000750900084A
:1000300081090008000000008D09000899090008E6
:10004000E9230008E9230008E9230008E923000860
:10005000E9230008E9230008E9230008E923000850
:10006000E9230008E9230008E9230008E923000840
:10007000E9230008E9230008E9230008E923000830
:10008000E9230008E9230008E9230008E923000820
:10009000E9230008E9230008E9230008E923000810
:1000A000E9230008E9230008E9230008E923000800
:1000B000E9230008E9230008E9230008E9230008F0
:1000C000E9230008E9230008E9230008E9230008E0
:1000D000E9230008E9230008E9230008E9230008D0
:1000E000E9230008E9230008E923000800000000D4
:1000F0000000000000000000000000000000000000
:0C01000000000000000000005FF808F1A3
:10010C0010B5054C237833B9044B13B10448AFF345
:10011C0000800123237010BD90000020000000001F
:10012C004448000808B5034B1BB103490348AFF31F
:10013C00008008BD00000000940000204448000826
:10014C00034613F8012B002AFBD1181A013870470B
:10015C0080B582B000AF78607868FFF7F1FF034696
:10016C009AB264237968034803F0CBFC00BF0837CC
:10017C00BD4680BD0C01002080B500AF0948FFF7DB
:10018C00E7FFC82002F08EF90748FFF7E1FF0122D4
:10019C000221064802F012FC4FF4FA7002F082F9C8
:1001AC0000BF80BD5C48000868480008000C014096
:1001BC0080B582B000AF78607868FFF7C1FF034666
:1001CC009BB21A467968002000F0CAFE00BF0837BF
:1001DC00BD4680BD80B5A0B000AF3B46064A07497E
:1001EC00184603F063FE3B461846FFF7E1FF00BFDD
:1001FC008037BD4680BD00BF78480008884800089D
:10020C0080B5A0B000AF0A4B1B78002B01D0094B76
:10021C0000E0094B3846094A094903F047FE3B46C2
:10022C001846FFF7C5FF00BF8037BD4680BD00BF35
:10023C00AC000020AC480008B04800087848000822
:10024C00B448000880B584B000AF786039607B6832
:10025C00FB602B48FFF77CFFF868FFF779FF294814
:10026C00FFF776FF2849F86803F04AFE0346002B97
:10027C003DD02649F86803F043FE0346002B38D0E6
:10028C002349F86803F03CFE0346002B33D0214988
:10029C00F86803F035FE0346002B10D01E48FFF71C
:1002AC0057FF012220211D4802F088FB1C4B012224
:1002BC001A701C48FFF77CFFFFF7A2FF1CE01A49DD
:1002CC00F86803F01DFE0346002B15D01748FFF706
:1002DC003FFF00222021114802F070FB104B00223E
:1002EC001A701348FFF764FFFFF78AFF04E000BFA2
:1002FC0002E000BF00E000BF1037BD4680BD00BF6C
:10030C00E8480008F0480008F448000808490008CC
:10031C00204900082C4900083C490008000C014009
:10032C00AC000020484900086849000878490008DA
:10033C008449000880B500AF0F48FFF709FF002380
:10034C0041F288320121002000F062FB42F2283297
:10035C000A49002000F0FEFC0346012B07D1084897
:10036C00FFF7F6FEFFF736FFFFF74AFF02E00548FE
:10037C00FFF7EEFE00BF80BDA4490008000000207E
:10038C00B8490008C449000880B5A2B000AF4FF4CA
:10039C00427000F0EBFF034687F8873097F8873000
:1003AC00172B0CD01048FFF7D3FE002000F064FC94
:1003BC004FF47A7002F076F8FFF7BCFF11E03B4681
:1003CC0080221946002000F01FFFC7F88000D7F8E4
:1003DC008030002B05DD3B46D7F880101846FFF720
:1003EC0031FF8837BD4680BDD449000880B590B038
:1003FC0000AF3148FFF7ACFEFFF7BEFE2F49304887
:10040C0001F044FB2F49304801F064FB2F49304880
:10041C0001F08CFB2F48FFF79BFE0021032001F01D
:10042C00B1FB642002F03EF82B4A07F1340392E84A
:10043C00030083E80300284A07F12C0392E8030029
:10044C0083E8030007F12C0207F134031146184628
:10045C0001F0D4FC2148FFF77BFE4FF4645000F010
:10046C0085FF034687F83F3097F83F203B1D1C491A
:10047C00184603F01BFD3B1D1846FFF769FE194893
:10048C0001F048FF1848FFF763FE01F0D8FD034662
:10049C0087F83E3097F83E30012B03D11348FFF715
:1004AC0057FE02E01248FFF753FEFFF743FF00BF71
:1004BC004037BD4680BD00BFE0490008D118000898
:1004CC00B918000819190008E9180008691900087A
:1004DC003D190008F0490008444A0008FC4900088E
:1004EC000C4A0008644A0008204A00082C4A0008FC
:1004FC00384A000880B500AFFFF746FF01F0C8FF8F
:10050C000246084B1B68D31A41F28832934207D932
:10051C0001F0BEFF0346034A13600348FFF748FE91
:10052C0000BF80BDB00000204C4A000880B500AF71
:10053C0001F056FF00F026F800F0CAF800F068F859
:10054C0000F09CF8642307220B490C4803F0D9FAFD
:10055C00FFF74CFF01222021094802F02FFA4FF43B
:10056C007A7001F09FFF00222021054802F026FA44
:10057C00FFF7C0FFFCE700BF5C4A00080C0100203D
:10058C00000C014080B590B000AF07F11803282291
:10059C000021184603F0ACFC3B1D00221A605A6087
:1005AC009A60DA601A610123BB614FF48033FB61FE
:1005BC0000233B620123BB6202237B634FF4803335
:1005CC00BB634FF48013FB6307F11803184602F06A
:1005DC000DFA0346002B01D000F0E4F80F237B60EA
:1005EC000223BB600023FB604FF480633B6100235C
:1005FC007B613B1D0121184602F07AFC0346002B5F
:10060C0001D000F0CFF800BF4037BD4680BD0000E0
:10061C0080B500AF174B184A1A60164B4FF4827214
:10062C005A60144B00229A60124B0022DA60114B74
:10063C0000221A610F4B00225A610E4B4FF40072CC
:10064C009A610C4B2022DA610A4B00221A62094B88
:10065C0000225A62074B00229A62064B0A22DA6287
:10066C00044802F0D3FD0346002B01D000F09AF8A9
:10067C0000BF80BDB40000200030014080B500AF49
:10068C00114B124A1A60104B4FF4E1325A600E4B68
:10069C0000229A600C4B0022DA600B4B00221A618C
:1006AC00094B0C225A61084B00229A61064B00221E
:1006BC00DA61054803F0D5F90346002B01D000F0B0
:1006CC0071F800BF80BD00BF0C0100200038014054
:1006DC0080B588B000AF07F1100300221A605A6091
:1006EC009A60DA602C4B9B692B4A43F010039361A0
:1006FC00294B9B6903F01003FB60FB68264B9B693D
:10070C00254A43F020039361234B9B6903F020039C
:10071C00BB60BB68204B9B691F4A43F00403936189
:10072C001D4B9B6903F004037B607B681A4B9B6930
:10073C00194A43F008039361174B9B6903F00803B4
:10074C003B603B6800221021144802F037F900226C
:10075C002221134802F032F910233B6101237B6103
:10076C000023BB610223FB6107F1100319460B4800
:10077C0001F0A0FF22233B6101237B610023BB61BD
:10078C000223FB6107F110031946054801F092FFA3
:10079C0000BF2037BD4680BD00100240000801405C
:1007AC00000C014080B400AF72B600BF00BFFDE783
:1007BC0080B485B000AF154B9B69144A43F001031C
:1007CC009361124B9B6903F00103BB60BB680F4B39
:1007DC00DB690E4A43F08053D3610C4BDB6903F0A9
:1007EC0080537B607B680A4B5B68FB60FB6823F083
:1007FC00E063FB60FB6843F00073FB60044AFB683A
:10080C00536000BF1437BD4680BC704700100240D7
:10081C000000014080B588B000AF786007F110038C
:10082C0000221A605A609A60DA607B681B681B4A67
:10083C0093422FD11A4B9B69194A43F4805393610D
:10084C00174B9B6903F48053FB60FB68144B9B694B
:10085C00134A43F004039361114B9B6903F00403A7
:10086C00BB60BB68A0233B6102237B610323FB615C
:10087C0007F1100319460B4801F01CFF40233B61A4
:10088C0000237B610023BB6107F110031946054867
:10089C0001F010FF00BF2037BD4680BD0030014085
:1008AC00001002400008014080B588B000AF7860AD
:1008BC0007F1100300221A605A609A60DA607B68B4
:1008CC001B681C4A934231D11B4B9B691A4A43F457
:1008DC0080439361184B9B6903F48043FB60FB6876
:1008EC00154B9B69144A43F004039361124B9B69AB
:1008FC0003F00403BB60BB684FF400733B6102233D
:10090C007B610323FB6107F1100319460B4801F0CF
:10091C00D1FE4FF480633B6100237B610023BB61FC
:10092C0007F110031946054801F0C4FE00BF20373B
:10093C00BD4680BD00380140001002400008014057
:10094C0080B400AF00BFFDE780B400AF00BFFDE78F
:10095C0080B400AF00BFFDE780B400AF00BFFDE77F
:10096C0080B400AF00BFFDE780B400AF00BFBD4650
:10097C0080BC704780B400AF00BFBD4680BC7047E0
:10098C0080B400AF00BFBD4680BC704780B500AFDF
:10099C0001F06CFD00BF80BD80B586B000AF786003
:1009AC00144A154BD31A7B617B693B61134B1B6853
:1009BC00002B02D1114B124A1A60104B1A687B683B
:1009CC0013443A699A4207D203F0B0FA03460C2258
:1009DC001A604FF0FF3309E0084B1B68FB60074BB4
:1009EC001A687B681344054A1360FB68184618376D
:1009FC00BD4680BD005000200004000054010020C2
:100A0C00C802002080B400AF00BFBD4680BC704758
:100A1C0090B589B000AF0446084611461A462346E5
:100A2C00FB710346BB710B46BB801346FB70002366
:100A3C00FB83FB79072B02D94FF0FF330DE1BB7918
:100A4C0003F00F03013B0D2B2CD801A252F823F01D
:100A5C00950A0008B70A0008B70A0008B70A000888
:100A6C00B10A0008B10A0008B10A0008B10A00086E
:100A7C00B10A0008B70A0008B70A0008B10A000852
:100A8C00B10A0008B70A000807F108030422194646
:100A9C004FF4706000F004FDBB68002B07D16FF0C1
:100AAC000203DAE06FF00403D7E000BF00E000BF00
:100ABC00FB7803F00403002B02D06FF00503CCE0AD
:100ACC00FB78002B28D0BB79012B02D0022B08D04D
:100ADC0022E0FB7803F02103002B1AD16FF0050301
:100AEC00BBE0FB7803F02003002B06D097F9033012
:100AFC00002B02DB6FF00503AFE0FB7803F0100373
:100B0C00002B08D097F90330002B04DB6FF00503A2
:100B1C00A3E000BF00E000BFFB79184600F0ACF882
:100B2C00FB799B000133D80097F9033023F00F03B6
:100B3C005AB297F9063013435BB2DBB2194600F098
:100B4C0061FCBB88002B10D1464B1B885A1C91B200
:100B5C00444A1180BB80434B1B884FF6F072934282
:100B6C0003D1404B4FF440421A80FB799B00013378
:100B7C00DB0003F580631A46BB881B0A9BB2DBB211
:100B8C001946104600F03EFCFB799B000133DB005C
:100B9C0003F5A0631A46BB88DBB21946104600F079
:100BAC0031FCFB799B000133DB0003F580730121E1
:100BBC00184600F027FC00BFFB799B000133DB00DB
:100BCC0003F58073184600F0D1FB0346002BF3D1DC
:100BDC00FB79012202FA03F31BB2DB431AB2224B5C
:100BEC001B881BB213401BB29AB21F4B1A80FB78A6
:100BFC0003F00102FB7902FA03F31AB21A4B1B88B9
:100C0C001BB213431BB29AB2174B1A80FB79012209
:100C1C0002FA03F31BB2DB431AB2144B1B881BB250
:100C2C0013401BB29AB2114B1A80FB79104A002167
:100C3C0022F81310FB790F4A0021D15400BFFB7925
:100C4C009B000133DB0003F54073184600F08EFB6C
:100C5C000346002BF3D097F9073018462437BD46CE
:100C6C0090BD00BF08000020580100205A01002050
:100C7C005C0100206C01002080B582B000AF0346FF
:100C8C00FB71FB79072B02D94FF0FF3355E0FB7951
:100C9C009B000133DB0003F580731021184600F034
:100CAC00B1FB00BFFB799B000133DB0003F58073C4
:100CBC00184600F05BFB0346002BF3D1FB799B003D
:100CCC000133DB0003F500731F21184600F09AFB7B
:100CDC00FB79012202FA03F31BB2DB431AB2194B64
:100CEC001B881BB213401BB29AB2164B1A80FB79AD
:100CFC00012202FA03F31BB2DB431AB2124B1B881C
:100D0C001BB213401BB29AB20F4B1A80FB790F4ADD
:100D1C00002122F81310FB790D4A0021D15400BF99
:100D2C00FB799B000133DB0003F54073184600F0A0
:100D3C001DFB0346002BF3D1012318460837BD4693
:100D4C0080BD00BF580100205A0100205C0100202A
:100D5C006C01002080B582B000AF03463960FB7196
:100D6C001346BB80BA88F8790423396800F006F87A
:100D7C00034618460837BD4680BD000080B584B0D8
:100D8C0000AF396011461A460346FB710B46BB8017
:100D9C001346BB71FB79072B02D94FF0FF33D9E017
:100DAC00FB799B000133DB00184600F0DFFA0346A9
:100DBC0003F00303012B02D06FF00403CAE0FB79AC
:100DCC009B000133DB0003F54073184600F0CEFAAC
:100DDC000346132B02D06FF00203BBE03B681B7879
:100DEC00FB60FB681B023A68013212781344FB600B
:100DFC00FB681B023A68023212781344FB60FB68F2
:100E0C001B023A68033212781344FB60FB68B3F19F
:100E1C00FF3F02D0FB68002B02D16FF00B0399E06F
:100E2C00BB88002B02D16FF00A0393E0FB799B0087
:100E3C000133DB0003F580531A46BB881B0A9BB2B7
:100E4C00DBB21946104600F0DDFAFB799B0001334A
:100E5C00DB0003F588531A46BB88DBB219461046F3
:100E6C0000F0D0FABB79102B02D16FF0040371E0C3
:100E7C00FB799B000133DB00184600F077FA034640
:100E8C00092B02D16FF0040364E0FB799B00013362
:100E9C00DB0003F5406304223968184600F060FB60
:100EAC00FB799B000133DB0003F5807304211846AA
:100EBC0000F0A8FA00BFFB799B000133DB0003F5BF
:100ECC008073184600F052FA0346002BF3D1234BE3
:100EDC001B881A46FB7942FA03F303F00103002B3B
:100EEC002BD0002336E0FB799B000133DB0003F5AC
:100EFC000073184600F03AFA034603F00803002B7F
:100F0C000CD0FB799B000133DB0003F50073082147
:100F1C00184600F077FA6FF00C031BE0FB799B008E
:100F2C000133DB0003F54073184600F01FFA03464B
:100F3C00002B02D16FF003030CE0FB799B00013313
:100F4C00DB0003F54073184600F010FA0346172B2C
:100F5C00C9D1012318461037BD4680BD5801002069
:100F6C0080B584B000AF03463960FB711346BB807B
:100F7C000023FB730023BB81FB79072B02D94FF0B5
:100F8C00FF3338E1FB799B000133DB00184600F09E
:100F9C00EDF9034603F00F03012B02D06FF00403AD
:100FAC0029E1BB88002B02D16FF00D0323E1FB7903
:100FBC009B000133DB0003F54073184600F0D6F9B3
:100FCC000346FB73FB7B172B05D0FB7B1C2B02D042
:100FDC006FF006030FE18A4B1B881A46FB7942FA25
:100FEC0003F303F00103002B39D0FB799B00013391
:100FFC00DB0003F50073184600F0B8F9034603F064
:10100C001F03FB73FB7B03F01003002B19D0FB7940
:10101C009B000133DB0003F500731021184600F030
:10102C00F1F9FB79012202FA03F31BB2DB431AB28A
:10103C00734B1B881BB213401BB29AB2704B1A80B5
:10104C000DE0FB7B03F00803002B06D0FB79184660
:10105C00FFF712FE6FF00C03CDE00023CBE0FB7921
:10106C009B000133DB0003F5F853184600F07EF9C2
:10107C0003469B02BB81BA88BB899A4201D9BB89C2
:10108C00BB80FB79184600F0CBFA0346BB81FB7999
:10109C009B000133DB0003F54073184600F066F942
:1010AC000346FB73FB7B172B0CD0FB7B1C2B09D053
:1010BC00FB7B002B03D1FB791846FFF7DDFD6FF0AE
:1010CC00060398E04F4B1B881A46FB7942FA03F350
:1010DC0003F00103002B05D0BA88BB899A4201D9D1
:1010EC00002388E0BA88BB899A4200D9C9E700BFBF
:1010FC00BA88FB793968184600F024FB404B1B88F2
:10110C001A46FB7942FA03F303F00103002B4DD08E
:10111C0034E0FB799B000133DB0003F54073184688
:10112C0000F024F90346FB73FB7B172B1AD0FB7BD7
:10113C001C2B17D0FB7B002B0DD0FB799B000133B4
:10114C00DB0003F50073184600F010F9034603F0BA
:10115C000803002B03D0FB791846FFF78DFD6FF0C9
:10116C00060348E0274B1B881A46FB7942FA03F327
:10117C0003F00103002B01D000233CE0FB799B0022
:10118C000133DB0003F50073184600F0EFF803465B
:10119C0003F01003002BBCD0FB799B000133DB0068
:1011AC0003F500731021184600F02CF9FB799B0015
:1011BC000133DB0003F580732021184600F022F97F
:1011CC0000BFFB799B000133DB0003F580731846ED
:1011DC0000F0CCF80346002BF3D1FB79012202FA84
:1011EC0003F31AB2064B1B881BB213431BB29AB201
:1011FC00034B1A80BB8818461037BD4680BD00BF14
:10120C005A0100205801002090B585B000AF03466C
:10121C003960FB711346BB800023FB730023BB8139
:10122C00FB79072B02D94FF0FF3398E0FB799B0039
:10123C000133DB00184600F099F8034603F00F0366
:10124C00012B02D06FF0040389E0BB88002B02D184
:10125C006FF00D0383E0FB799B000133DB0003F59A
:10126C00F053184600F082F803469B02BB81BA8902
:10127C00BB889A4201D2BB89BB80FB79184600F02F
:10128C0018FA0346BB81FB799B000133DB0003F5A5
:10129C004073184600F06AF80346FB73FB7B172B70
:1012AC0026D0FB7B1C2B1CD1BB89002B30D1FB79AE
:1012BC00184600F0B5F903461C46FB799B00013338
:1012CC00DB0003F5F853184600F050F803469B0278
:1012DC009C420DD1FB791846FFF7CEFC6FF006034C
:1012EC003DE0FB791846FFF7C7FC6FF0060336E0CC
:1012FC001D4B1B881A46FB7942FA03F303F00103DA
:10130C00002B01D000232AE0BB89002B02D1B4E7CB
:10131C0000BF00E000BFBA89BB889A4201D2BB89EA
:10132C00BB80BA88FB793968184600F065FAFB79FE
:10133C009B000133DB0003F580734021184600F05D
:10134C0061F800BFFB799B000133DB0003F5807370
:10135C00184600F00BF80346002BF3D1BB88184657
:10136C001437BD4690BD00BF5801002080B584B035
:10137C0000AF7860224BDB689847214B5B6998473C
:10138C001F4B5B6A002B03D01D4B9B6A002B14D1A7
:10139C001B4B1B6A7A68120CD2B210469847184B3A
:1013AC001B6A7A68120AD2B210469847144B1B6A11
:1013BC007A68D2B21046984711E07B681B0CDBB2FE
:1013CC003B737B681B0ADBB27B737B68DBB2BB7342
:1013DC000B4B9B6A07F10C02032110469847084BF4
:1013EC00DB6998470346FB73054B9B699847044B95
:1013FC001B699847FB7B18461037BD4680BD00BF64
:10140C000C00002080B584B000AF78600B46FB70F8
:10141C00224BDB689847214B5B6998477B6843F00C
:10142C0004037B601D4B9B6A002B19D11B4B1B6A61
:10143C007A68120CD2B210469847184B1B6A7A681D
:10144C00120AD2B210469847144B1B6A7A68D2B271
:10145C0010469847114B1B6AFA781046984713E0D0
:10146C007B681B0CDBB23B737B681B0ADBB27B73A8
:10147C007B68DBB2BB73FB78FB73084B9B6A07F191
:10148C000C02042110469847044B9B699847034B68
:10149C001B69984700BF1037BD4680BD0C0000206B
:1014AC0090B587B000AFF860B9601346FB802B4B4A
:1014BC00DB689847294B5B699847284B5B6A002B84
:1014CC0003D0264B9B6A002B26D1244B1B6AFA684F
:1014DC00120CD2B210469847204B1B6AFA68120ABB
:1014EC00D2B2104698471D4B1B6AFA68D2B210460E
:1014FC0098470023FB820AE0184BDB69FA8AB9682B
:10150C008C18984703462370FB8A0133FB82FA8AB6
:10151C00FB889A42F0D317E0FB681B0CDBB23B74E0
:10152C00FB681B0ADBB27B74FB68DBB2BB740B4B36
:10153C009B6A07F11002032110469847074B5B6A20
:10154C00FA881146B8689847044B9B699847034B37
:10155C001B69984700BF1C37BD4690BD0C0000208E
:10156C0080B586B000AFF860B9601346FB802B4B9A
:10157C00DB689847294B5B699847FB6843F0040389
:10158C00FB60264B9B6A002B26D1244B1B6AFA6806
:10159C00120CD2B210469847204B1B6AFA68120AFA
:1015AC00D2B2104698471D4B1B6AFA68D2B210464D
:1015BC0098470023FB820AE0184B1B6AFA8AB96829
:1015CC000A44127810469847FB8A0133FB82FA8A48
:1015DC00FB889A42F0D317E0FB681B0CDBB23B7420
:1015EC00FB681B0ADBB27B74FB68DBB2BB740B4B76
:1015FC009B6A07F11002032110469847074B9B6A20
:10160C00FA881146B8689847044B9B699847034B76
:10161C001B69984700BF1837BD4680BD0C000020E1
:10162C0090B585B000AF0346FB710023FB8100230E
:10163C00BB81FB799B000133DB0003F5005318469B
:10164C00FFF794FE0346BB81BB891B029CB2FB795E
:10165C009B000133DB0003F504531846FFF786FEAD
:10166C0003462344BB81BB89002B19D0FB799B001B
:10167C000133DB0003F500531846FFF777FE0346F2
:10168C00FB81FB891B029CB2FB799B000133DB00C5
:10169C0003F504531846FFF769FE03462344FB8108
:1016AC00FA89BB899A42C4D1FB8918461437BD46C6
:1016BC0090BD90B585B000AF0346FB710023FB8154
:1016CC000023BB81FB799B000133DB0003F518532E
:1016DC001846FFF74BFE0346BB81BB891B029CB22D
:1016EC00FB799B000133DB0003F51C531846FFF715
:1016FC003DFE03462344BB81BB89002B19D0FB79EB
:10170C009B000133DB0003F518531846FFF72EFE40
:10171C000346FB81FB891B029CB2FB799B000133C6
:10172C00DB0003F51C531846FFF720FE0346234449
:10173C00FB81FA89BB899A42C4D1FB8918461437BC
:10174C00BD4690BD90B585B000AF03463960FB71C6
:10175C001346BB800023FB810023BB60BB88002B9E
:10176C0046D0FB799B000133DB0003F51053184680
:10177C00FFF7FCFD03461B029CB2FB799B00013377
:10178C00DB0003F514531846FFF7F0FD0346234422
:10179C00FB81FB891A02FB799B000233DB001344AB
:1017AC00BB60BB881A463968B868FFF7D9FEFA895E
:1017BC00BB881344FB81FB799B000133DB0003F5F1
:1017CC0010531A46FB891B0A9BB2DBB21946104612
:1017DC00FFF718FEFB799B000133DB0003F5145374
:1017EC001A46FB89DBB219461046FFF70BFE00E0E8
:1017FC0000BF1437BD4690BD90B585B000AF034611
:10180C003960FB711346BB800023FB810023BB6056
:10181C00BB88002B46D0FB799B000133DB0003F522
:10182C0020531846FFF7A2FD03461B029CB2FB791E
:10183C009B000133DB0003F524531846FFF796FD9C
:10184C0003462344FB81FB891A02FB799B0003337B
:10185C00DB001344BB60BB881A463968B868FFF7D5
:10186C001FFEFA89BB881344FB81FB799B00013373
:10187C00DB0003F520531A46FB891B0A9BB2DBB233
:10188C0019461046FFF7BEFDFB799B000133DB00C8
:10189C0003F524531A46FB89DBB219461046FFF7B1
:1018AC00B1FD00E000BF1437BD4690BD80B500AF60
:1018BC0000221021024801F081F800BF80BD00BF5A
:1018CC000008014080B500AF01221021024801F050
:1018DC0075F800BF80BD00BF0008014080B584B022
:1018EC0002AFFF23FB710023BB71BA1DF91D4FF032
:1018FC00FF3300930123044801F050FEBB791846D6
:10190C000837BD4680BD00BFB400002080B582B052
:10191C0000AF0346FB71F91D4FF0FF330122034862
:10192C0001F0F8FC00BF0837BD4680BDB4000020B4
:10193C0080B584B002AF78600B467B807B884FF01B
:10194C00FF3200927A687968034801F027FE00BFE5
:10195C000837BD4680BD00BFB400002080B582B002
:10196C0000AF78600B467B807A884FF0FF33796844
:10197C00034801F0CFFC00BF0837BD4680BD00BF57
:10198C00B400002080B400AF00BFBD4680BC7047DF
:10199C0080B400AF00BFBD4680BC704780B400AFC0
:1019AC0000BFBD4680BC704780B400AF00BFBD46D1
:1019BC0080BC704780B483B000AF78607B681B78C4
:1019CC00DBB218460C37BD4680BC704780B483B080
:1019DC0000AF78600B46FB707B68FA781A7000BF1A
:1019EC000C37BD4680BC704780B400AF002318464E
:1019FC00BD4680BC704780B483B000AF0346FB711A
:101A0C0000BF0C37BD4680BC7047000090B585B058
:101A1C0000AF78600B467B800023FB810AE00A4B09
:101A2C00DB697C68621C7A60984703462370FB89EB
:101A3C000133FB81FA897B889A42F0D300BF00BF47
:101A4C001437BD4690BD00BF0C00002080B584B09B
:101A5C0000AF78600B467B800023FB810AE00A4BC9
:101A6C001A6A7B68591C79601B7818469047FB8969
:101A7C000133FB81FA897B889A42F0D300BF00BF07
:101A8C001037BD4680BD00BF0C00002080B483B071
:101A9C0000AF786039607B68002B02D03B68002B6C
:101AAC0006D1094B094A5A61074B094A9A6106E06B
:101ABC00054A7B685361044A3B68936100BF00BFD1
:101ACC000C37BD4680BC70470C000020A9190008DB
:101ADC00B519000880B483B000AF7860396000BFDE
:101AEC000F4B1B8803F40073002BF9D07B68002B81
:101AFC0002D03B68002B06D1094B0A4ADA61084B2D
:101B0C00094A1A6206E0064A7B68D361044A3B68BC
:101B1C00136200BF00BF0C37BD4680BC704700BFCE
:101B2C000C000020F5190008031A000880B483B0DB
:101B3C0000AF7860396000BF0F4B1B8803F4007353
:101B4C00002BF9D07B68002B02D03B68002B06D110
:101B5C00094B0A4A5A62084B094A9A6206E0064A3D
:101B6C007B685362044A3B68936200BF00BF0C372A
:101B7C00BD4680BC704700BF0C000020191A00083D
:101B8C00591A000890B587B000AF03463960FB7155
:101B9C003B681B78FB750023FB6000233B61FB79E2
:101BAC00033B142B00F2D38001A252F823F000BFA8
:101BBC00111C0008171C0008431C0008371C0008E7
:101BCC00511C00085D1C00086B1C0008911C0008CF
:101BDC005B1D00085B1D0008B31C00085B1D0008A2
:101BEC005B1D00085B1D0008F71C0008FD1C0008AD
:101BFC00051D00080D1D0008151D0008231D0008FB
:101C0C003F1D000800F0AEF8A4E03B68002B04D0A8
:101C1C003B68FB60FB6808333B61FB683A69114623
:101C2C00184600F0EBF8034695E03B681B88184615
:101C3C0000F070F98EE000F0A1F903461A463B68FB
:101C4C001A8087E03B681B88184600F0BBF981E0DE
:101C5C0000F0D3F903461A463B681A807AE03B68D9
:101C6C001B881B0A9BB2DBB219464FF49850FFF746
:101C7C00C9FB3B681B88DBB219464FF4A050FFF739
:101C8C00C1FB67E04FF49850FFF770FB03461B0253
:101C9C009CB24FF4A050FFF769FB034623449AB261
:101CAC003B681A8056E02E4B9A783B681A703B685A
:101CBC0001332B4AD2781A703B680233284A1279C6
:101CCC001A703B680333264A52791A703B68043306
:101CDC00234A92791A703B680533214AD2791A70DB
:101CEC003B68063300221A7034E000F0D7F931E07B
:101CFC00386800F0FAF92DE0386800F039FA29E07C
:101D0C00386800F09FFA25E03B681B78184600F015
:101D1C00B7FA03461FE000F0A8F90346FB75FB7DFC
:101D2C00FF2B02D14FF0FF3315E03B68FA7D1A70A0
:101D3C0010E000F084F90346FB75FB7DFF2B02D10C
:101D4C004FF0FF3307E03B68FA7D1A7002E04FF06A
:101D5C00FF3300E0002318461C37BD4690BD00BF82
:101D6C000C00002080B586B000AF3B1D0622194642
:101D7C004FF41060FFF794FB07F11403042219468B
:101D8C004FF48070FFF78CFB07F110030422194607
:101D9C004FF4A060FFF784FB07F10C0304221946F3
:101DAC004FF47060FFF77CFB80210020FFF72AFBCB
:101DBC000020FFF7DBFA3B1D062219464FF410609A
:101DCC00FFF7CEFB07F11403042219464FF4807081
:101DDC00FFF7C6FB07F11003042219464FF4A0606D
:101DEC00FFF7BEFB07F10C03042219464FF4706099
:101DFC00FFF7B6FB00BF1837BD4680BD80B584B079
:101E0C0000AF786039600023BB73FFF7ABFF7B68D2
:101E1C00002B3BD00023BB730023FB7315E097F919
:101E2C000F307A6813441A78BB7B1344DBB2BB7354
:101E3C0097F90E30102B02DD4FF0FF3366E097F967
:101E4C000F30DBB20133DBB2FB7397F90F30072B8A
:101E5C00E5DD0023FB7315E097F90F309B00013390
:101E6C00DB0003F5F853184697F90F307A681344E2
:101E7C001B781946FFF7C6FA97F90F30DBB201331E
:101E8C00DBB2FB7397F90F30072BE5DD3B68002BBA
:101E9C003BD00023BB730023FB7315E097F90F3085
:101EAC003A6813441A78BB7B1344DBB2BB7397F9C3
:101EBC000E30102B02DD4FF0FF3327E097F90F3077
:101ECC00DBB20133DBB2FB7397F90F30072BE5DD87
:101EDC000023FB7315E097F90F309B000133DB00F7
:101EEC0003F5F053184697F90F303A6813441B78F2
:101EFC001946FFF787FA97F90F30DBB20133DBB2E3
:101F0C00FB7397F90F30072BE5DD002318461037CC
:101F1C00BD4680BD80B584B000AF0346FB80FB8816
:101F2C00FB73FB881B0A9BB2BB73FB7B23F00F0379
:101F3C00DBB219464FF4A850FFF764FA0023FB7389
:101F4C0014E0BA7BFB7B42FA03F303F00103002B92
:101F5C0009D0FB7B9B000133DB0003F500731F21D1
:101F6C001846FFF74FFAFB7B0133FB73FB7B072B08
:101F7C00E7D900BF00BF1037BD4680BD80B582B029
:101F8C0000AF0023FB710023BB7100233B604FF4B7
:101F9C00A850FFF7EBF9034623F00F03FB714FF446
:101FAC00B850FFF7E3F90346BB71BB793B603B6864
:101FBC001A02FB7913443B603B689BB21846083706
:101FCC00BD4680BD80B584B000AF0346FB80FB8866
:101FDC00FB73FB881B0A9BB2BB73FB7B19464FF44C
:101FEC00B050FFF70FFABB7B19464FF4C050FFF708
:101FFC0009FA00BF1037BD4680BD80B582B000AF76
:10200C000023FB710023BB7100233B604FF4B050E5
:10201C00FFF7ACF90346FB714FF4C050FFF7A6F97C
:10202C000346BB71BB793B603B681A02FB791344D6
:10203C003B603B689BB218460837BD4680BD80B5F7
:10204C0082B000AF0023FB714FF43850FFF78EF9CC
:10205C00034603F00103002B01D00123FB7197F918
:10206C00073018460837BD4680BD80B582B000AF3A
:10207C000023FB714FF43850FFF778F9034603F057
:10208C003803302B02D10123FB7101E00023FB71DB
:10209C0097F9073018460837BD4680BD80B582B029
:1020AC0000AF4FF43850FFF761F90346FB71FB7931
:1020BC0003F07F03FB71FB7919464FF43850FFF79F
:1020CC00A1F94FF43850FFF751F90346FB71FB7936
:1020DC0063F07F03FB71FB7919464FF43850FFF71F
:1020EC0091F900BF0837BD4680BD80B584B000AF04
:1020FC0078600023FB737B681B78012B04D1FB7B7E
:10210C0043F04003FB7303E0FB7B23F04003FB73C2
:10211C007B685B78012B04D1FB7B43F03803FB73AA
:10212C0019E07B68DB78012B0DD17B689B78012B48
:10213C0004D1FB7B43F01803FB730CE0FB7B43F0F7
:10214C000803FB7307E07B689B78012B03D1FB7BB7
:10215C0043F01003FB73FB7B19464FF43850FFF729
:10216C0051F9FFF79BFF00BF1037BD4680BD000043
:10217C0080B584B000AF78600023FB734FF4385007
:10218C00FFF7F4F80346FB73FB7B9B11DBB203F008
:10219C000103DAB27B681A70FB7B03F03803202B47
:1021AC0001D0382B03D17B6801225A7003E07B6885
:1021BC0000225A7000BFFB7B03F03803103B102B3E
:1021CC008CBF01220022D2B2002A0FD11B4A22FA64
:1021DC0003F303F00103002B14BF01230023DBB234
:1021EC00002B03D07B6801229A7003E07B680022ED
:1021FC009A7000BFFB7B03F03803083B182B8CBF95
:10220C0001220022D2B2002A0FD10D4A22FA03F386
:10221C0003F00103002B14BF01230023DBB2002BBE
:10222C0003D07B680122DA7003E07B680022DA704D
:10223C0000BF00BF1037BD4680BD00BF01010100CB
:10224C000100010180B584B000AF78604FF43850C4
:10225C00FFF78CF80346FB73FB7B9B10DBB203F0A0
:10226C000103DAB27B68DA70FB7B5B10DBB203F044
:10227C000103DAB27B689A7000BF1037BD4680BD8F
:10228C0080B584B000AF0346FB710023FB734FF4A1
:10229C003850FFF76BF80346FB73FB7B03F04003EE
:1022AC00002B02D14FF0FF3330E0FB7B23F03803DF
:1022BC00FB73FB79012B04D1FB7B43F03003FB73E5
:1022CC0003E0FB7B43F03803FB73FB7B19464FF4B5
:1022DC003850FFF797F8FFF7E1FE4FF43850FFF74F
:1022EC0045F80346FB73FB79012B06D1FB7B03F00E
:1022FC003003002B08D0002308E0FB7B03F03803ED
:10230C00002B01D0002301E04FF0FF3318461037AB
:10231C00BD4680BD80B582B000AF78607B68062278
:10232C0019464FF41060FFF71BF97B680E3304223B
:10233C0019464FF48070FFF713F97B680A330422B7
:10234C0019464FF4A060FFF70BF97B6806330422A3
:10235C0019464FF47060FFF703F97B689A7C0B4BBE
:10236C001A707B68DA7C094B5A707B681A7D074BB4
:10237C009A707B685A7D054BDA707B689A7D044BAA
:10238C001A7000BF0837BD4680BD00BF7401002025
:10239C0078010020FEF736FB0B480C490C4A002351
:1023AC0002E0D458C4500433C4188C42F9D3094AFF
:1023BC00094C002301E013600432A242FBD301F06C
:1023CC00BBFDFEF7B3F87047000000209000002022
:1023DC00EC4A000890000020C8020020FEE7000034
:1023EC0080B500AF084B1B68074A43F0100313601D
:1023FC00032000F02BF90F2000F008F8FEF7D8F9B5
:10240C000023184680BD00BF0020024080B582B07A
:10241C0000AF7860124B1A68124B1B7819464FF4B8
:10242C007A73B3FBF1F3B2FBF3F3184600F035F912
:10243C000346002B01D001230EE07B680F2B0AD83A
:10244C00002279684FF0FF3000F00BF9064A7B68E8
:10245C001360002300E0012318460837BD4680BDF9
:10246C00040000203C0000203800002080B400AFA5
:10247C00054B1B781A46054B1B681344034A136023
:10248C0000BFBD4680BC70473C0000207C01002092
:10249C0080B400AF024B1B681846BD4680BC704729
:1024AC007C01002080B584B000AF7860FFF7F0FFAE
:1024BC00B8607B68FB60FB68B3F1FF3F05D00A4B4B
:1024CC001B781A46FB681344FB6000BFFFF7E0FF64
:1024DC000246BB68D31AFA689A42F7D800BF00BF0D
:1024EC001037BD4680BD00BF3C00002080B485B0D5
:1024FC0000AF78607B6803F00703FB600C4BDB6874
:10250C00BB60BA684FF6FF031340BB60FB681A024E
:10251C00BB68134343F0BF6343F40033BB60044A0E
:10252C00BB68D36000BF1437BD4680BC704700BF8A
:10253C0000ED00E080B400AF044BDB681B0A03F035
:10254C0007031846BD4680BC704700BF00ED00E095
:10255C0080B483B000AF03463960FB7197F9073044
:10256C00002B0ADB3B68DAB20C4997F907301201F1
:10257C00D2B20B4483F800230AE03B68DAB2084974
:10258C00FB7903F00F03043B1201D2B20B441A7611
:10259C0000BF0C37BD4680BC704700BF00E100E0B7
:1025AC0000ED00E080B489B000AFF860B9607A60EB
:1025BC00FB6803F00703FB61FB69C3F10703042B02
:1025CC0028BF0423BB61FB690433062B02D9FB69CA
:1025DC00033B00E000237B614FF0FF32BB6902FA42
:1025EC0003F3DA43BB681A407B699A404FF0FF3122
:1025FC007B6901FA03F3D9437B680B4013431846FC
:10260C002437BD4680BC704780B582B000AF78607F
:10261C007B68013BB3F1807F01D301230FE00A4AB1
:10262C007B68013B53600F214FF0FF30FFF790FFA9
:10263C00054B00229A60044B07221A6000231846AF
:10264C000837BD4680BD00BF10E000E080B582B009
:10265C0000AF78607868FFF749FF00BF0837BD46C8
:10266C0080BD80B586B000AF0346B9607A60FB735D
:10267C0000237B61FFF75EFF78617A68B96878693F
:10268C00FFF790FF024697F90F3011461846FFF7F7
:10269C005FFF00BF1837BD4680BD80B582B000AF6C
:1026AC0078607868FFF7B0FF034618460837BD46D8
:1026BC0080BD000080B48BB000AF7860396000231F
:1026CC007B6200233B6269E101227B6A02FA03F31D
:1026DC00FB613B681B68FA691340BB61BA69FB6913
:1026EC009A4240F058813B685B689A4A93425ED0AC
:1026FC00984A934275D8984A934258D0964A934236
:10270C006FD8964A934252D0944A934269D8944ACD
:10271C0093424CD0924A934263D8924A934246D009
:10272C00904A93425DD8122B2AD8122B59D801A269
:10273C0052F823F0BB27000895270008A7270008AC
:10274C00E9270008EF270008EF270008EF2700080B
:10275C00EF270008EF270008EF270008EF270008F5
:10276C00EF270008EF270008EF270008EF270008E5
:10277C00EF270008EF2700089D270008B127000865
:10278C00794A934213D02CE03B68DB683B6229E02A
:10279C003B68DB6804333B6224E03B68DB6808334E
:1027AC003B621FE03B68DB680C333B621AE03B6822
:1027BC009B68002B02D104233B6213E03B689B68AF
:1027CC00012B05D108233B627B68FA691A6109E089
:1027DC0008233B627B68FA695A6103E000233B6281
:1027EC0000E000BFBB69FF2B01D87B6801E07B6870
:1027FC0004337B61BB69FF2B02D87B6A9B0002E030
:10280C007B6A083B9B003B617B691A680F213B6923
:10281C0001FA03F3DB431A40396A3B6901FA03F30B
:10282C001A437B691A603B685B6803F08053002B8A
:10283C0000F0B1804D4B9B694C4A43F0010393610E
:10284C004A4B9B6903F00103BB60BB68484A7B6A37
:10285C009B08023352F82330FB607B6A03F00303BE
:10286C009B000F2202FA03F3DB43FA681340FB6070
:10287C007B68404A934213D07B683F4A93420DD009
:10288C007B683E4A934207D07B683D4A934201D114
:10289C00032306E0042304E0022302E0012300E00A
:1028AC0000237A6A02F0030292009340FA68134301
:1028BC00FB602F497B6A9B080233FA6841F823209E
:1028CC003B685B6803F48013002B06D02D4B9A6891
:1028DC002C49BB6913438B6006E02A4B9A68BB6991
:1028EC00DB43284913408B603B685B6803F400139F
:1028FC00002B06D0234BDA682249BB691343CB600B
:10290C0006E0204BDA68BB69DB431E491340CB6001
:10291C003B685B6803F40033002B06D0194B5A68F4
:10292C001849BB6913434B6006E0164B5A68BB69E8
:10293C00DB43144913404B603B685B6803F4803302
:10294C00002B21D00F4B1A680E49BB6913430B6047
:10295C0021E000BF000032100000311000002210F6
:10296C000000211000001210000011100010024095
:10297C000000014000080140000C01400010014023
:10298C0000140140000401400B4B1A68BB69DB4387
:10299C00094913400B607B6A01337B623B681A6800
:1029AC007B6A22FA03F3002B7FF48EAE00BF00BFCC
:1029BC002C37BD4680BC70470004014080B483B006
:1029CC0000AF78600B467B8013467B707B78002BC6
:1029DC0003D07A887B681A6103E07B881A047B68D1
:1029EC001A6100BF0C37BD4680BC704780B586B0FD
:1029FC0000AF78607B68002B01D1012372E27B6809
:102A0C001B6803F00103002B00F08780924B5B687E
:102A1C0003F00C03042B0CD08F4B5B6803F00C03FE
:102A2C00082B12D18C4B5B6803F48033B3F5803FD9
:102A3C000BD1894B1B6803F40033002B6CD07B68E3
:102A4C005B68002B68D101234CE27B685B68B3F5B3
:102A5C00803F06D1804B1B687F4A43F48033136060
:102A6C002EE07B685B68002B0CD17B4B1B687A4A91
:102A7C0023F480331360784B1B68774A23F480234C
:102A8C0013601DE07B685B68B3F5A02F0CD1724B13
:102A9C001B68714A43F4802313606F4B1B686E4AAA
:102AAC0043F4803313600BE06B4B1B686A4A23F4CE
:102ABC0080331360684B1B68674A23F480231360D0
:102ACC007B685B68002B13D0FFF7E2FC386108E0F1
:102ADC00FFF7DEFC02463B69D31A642B01D90323B2
:102AEC0000E25D4B1B6803F40033002BF0D014E0C4
:102AFC00FFF7CEFC386108E0FFF7CAFC02463B69E1
:102B0C00D31A642B01D90323ECE1534B1B6803F458
:102B1C000033002BF0D100E000BF7B681B6803F092
:102B2C000203002B63D04C4B5B6803F00C03002BAF
:102B3C000BD0494B5B6803F00C03082B1CD1464BA4
:102B4C005B6803F48033002B16D1434B1B6803F0F6
:102B5C000203002B05D07B681B69012B01D00123DC
:102B6C00C0E13D4B1B6823F0F8027B685B69DB001E
:102B7C00394913430B603AE07B681B69002B20D06A
:102B8C00364B01221A60FFF783FC386108E0FFF72F
:102B9C007FFC02463B69D31A022B01D90323A1E126
:102BAC002D4B1B6803F00203002BF0D02A4B1B6843
:102BBC0023F0F8027B685B69DB00274913430B6049
:102BCC0015E0264B00221A60FFF762FC386108E022
:102BDC00FFF75EFC02463B69D31A022B01D9032393
:102BEC0080E11D4B1B6803F00203002BF0D17B68C6
:102BFC001B6803F00803002B3AD07B689B69002B01
:102C0C0019D0174B01221A60FFF742FC386108E01B
:102C1C00FFF73EFC02463B69D31A022B01D9032372
:102C2C0060E10D4B5B6A03F00203002BF0D0012036
:102C3C0000F0CEFA1CE00A4B00221A60FFF728FCC9
:102C4C0038610FE0FFF724FC02463B69D31A022BD4
:102C5C0008D9032346E100BF0010024000004242A5
:102C6C0080044242924B5B6A03F00203002BE9D1D1
:102C7C007B681B6803F00403002B00F0A680002384
:102C8C00FB758B4BDB6903F08053002B0DD1884B0C
:102C9C00DB69874A43F08053D361854BDB6903F0D2
:102CAC008053BB60BB680123FB75824B1B6803F42C
:102CBC008073002B18D17F4B1B687E4A43F48073C2
:102CCC001360FFF7E5FB386108E0FFF7E1FB024614
:102CDC003B69D31A642B01D9032303E1754B1B68A1
:102CEC0003F48073002BF0D07B68DB68012B06D1DA
:102CFC006F4B1B6A6E4A43F0010313622DE07B6835
:102D0C00DB68002B0CD16A4B1B6A694A23F0010368
:102D1C001362674B1B6A664A23F0040313621CE0C0
:102D2C007B68DB68052B0CD1614B1B6A604A43F056
:102D3C00040313625E4B1B6A5D4A43F0010313628A
:102D4C000BE05B4B1B6A5A4A23F001031362584B8E
:102D5C001B6A574A23F0040313627B68DB68002B61
:102D6C0015D0FFF795FB38610AE0FFF791FB02469F
:102D7C003B69D31A41F28832934201D90323B1E063
:102D8C004B4B1B6A03F00203002BEED014E0FFF751
:102D9C007FFB38610AE0FFF77BFB02463B69D31AE5
:102DAC0041F28832934201D903239BE0404B1B6ACA
:102DBC0003F00203002BEED1FB7D012B05D13C4B24
:102DCC00DB693B4A23F08053D3617B68DB69002BC2
:102DDC0000F08780364B5B6803F00C03082B61D046
:102DEC007B68DB69022B46D1334B00221A60FFF75C
:102DFC004FFB386108E0FFF74BFB02463B69D31AE7
:102E0C00022B01D903236DE0294B1B6803F00073DF
:102E1C00002BF0D17B681B6AB3F5803F08D1244BA3
:102E2C005B6823F400327B689B68214913434B6039
:102E3C001F4B5B6823F474127B68196A7B685B6AAE
:102E4C000B431B4913434B601B4B01221A60FFF7CA
:102E5C001FFB386108E0FFF71BFB02463B69D31AE6
:102E6C00022B01D903233DE0114B1B6803F00073C7
:102E7C00002BF0D035E0104B00221A60FFF708FB56
:102E8C00386108E0FFF704FB02463B69D31A022BBA
:102E9C0001D9032326E0064B1B6803F00073002BBB
:102EAC00F0D11EE07B68DB69012B07D1012319E00F
:102EBC000010024000700040600042420B4B5B6807
:102ECC00FB60FB6803F480327B681B6A9A4206D174
:102EDC00FB6803F470127B685B6A9A4201D0012391
:102EEC0000E0002318461837BD4680BD0010024094
:102EFC0080B584B000AF786039607B68002B01D15D
:102F0C000123D0E06A4B1B6803F007033A689A422E
:102F1C0010D9674B1B6823F0070265493B681343C4
:102F2C000B60634B1B6803F007033A689A4201D0AD
:102F3C000123B8E07B681B6803F00203002B20D050
:102F4C007B681B6803F00403002B05D0594B5B68AE
:102F5C00584A43F4E06353607B681B6803F0080332
:102F6C00002B05D0534B5B68524A43F460535360BB
:102F7C00504B5B6823F0F0027B689B684D49134310
:102F8C004B607B681B6803F00103002B40D07B680F
:102F9C005B68012B07D1474B1B6803F40033002BF4
:102FAC0015D101237FE07B685B68022B07D1414B75
:102FBC001B6803F00073002B09D1012373E03D4B18
:102FCC001B6803F00203002B01D101236BE0394B8A
:102FDC005B6823F003027B685B68364913434B60E4
:102FEC00FFF756FAF8600AE0FFF752FA0246FB6860
:102FFC00D31A41F28832934201D9032353E02D4B6B
:10300C005B6803F00C027B685B689B009A42EBD117
:10301C00274B1B6803F007033A689A4210D2244BE3
:10302C001B6823F0070222493B6813430B60204BBB
:10303C001B6803F007033A689A4201D0012332E07F
:10304C007B681B6803F00403002B08D0194B5B68EA
:10305C0023F4E0627B68DB68164913434B607B68A2
:10306C001B6803F00803002B09D0124B5B6823F498
:10307C0060527B681B69DB000E4913434B6000F008
:10308C0021F802460B4B5B681B0903F00F030A493E
:10309C00CB5C22FA03F3094A1360094B1B681846F0
:1030AC00FFF7B4F9002318461037BD4680BD00BFAA
:1030BC0000200240001002407C4A0008040000205E
:1030CC003800002080B487B000AF0023FB600023E1
:1030DC00BB6000237B6100237B6000233B611E4BA4
:1030EC005B68FB60FB6803F00C03042B02D0082B1D
:1030FC0003D027E0194B3B6127E0FB689B0C03F0E6
:10310C000F03174AD35C7B60FB6803F48033002BFE
:10311C0010D0114B5B685B0C03F00103114AD35CBC
:10312C00BB607B680D4A03FB02F2BB68B2FBF3F396
:10313C007B6104E07B680C4A02FB03F37B617B69D7
:10314C003B6102E0054B3B6100BF3B6918461C37F5
:10315C00BD4680BC704700BF0010024000127A00D0
:10316C00944A0008A44A000800093D0080B400AF4E
:10317C00024B1B681846BD4680BC704704000020FB
:10318C0080B500AFFFF7F2FF0246054B5B681B0AE8
:10319C0003F007030349CB5C22FA03F3184680BD06
:1031AC00001002408C4A000880B500AFFFF7DEFF2C
:1031BC000246054B5B68DB0A03F007030349CB5C53
:1031CC0022FA03F3184680BD001002408C4A000816
:1031DC0080B485B000AF78600A4B1B680A4AA2FB2A
:1031EC0003235B0A7A6802FB03F3FB6000BFFB68F6
:1031FC005A1EFA60002BF9D100BF00BF1437BD4630
:10320C0080BC704704000020D34D621080B582B0A2
:10321C0000AF78607B68002B01D1012376E07B68DE
:10322C005B6A002B08D17B685B68B3F5827F09D0A1
:10323C007B680022DA6105E07B6800221A617B68FA
:10324C0000225A617B6800229A627B6893F85130A5
:10325C00DBB2002B06D17B68002283F85020786803
:10326C00FDF7D8FA7B68022283F851207B681B6833
:10327C001A687B681B6822F040021A607B685B68E6
:10328C0003F482727B689B6803F404431A437B68E3
:10329C00DB6803F400631A437B681B6903F00203C9
:1032AC001A437B685B6903F001031A437B689B69D3
:1032BC0003F400731A437B68DB6903F038031A4389
:1032CC007B681B6A03F0800342EA03017B689B6AFC
:1032DC0003F400527B681B680A431A607B689B6985
:1032EC001A0C7B681B6802F004025A607B681B682E
:1032FC00DA697B681B6822F40062DA617B68002261
:10330C005A657B68012283F8512000231846083740
:10331C00BD4680BD80B588B000AFF860B9603B6039
:10332C001346FB80FFF7B4F8F861FB887B83FB68DE
:10333C0093F85130DBB2012B01D002232AE1BB6898
:10334C00002B02D0FB88002B01D1012322E1FB686A
:10335C0093F85030012B01D102231BE1FB680122B1
:10336C0083F85020FB68032283F85120FB6800226D
:10337C005A65FB68BA681A63FB68FA889A86FB6818
:10338C00FA88DA86FB6800229A63FB6800229A8727
:10339C00FB680022DA87FB6800225A64FB68002273
:1033AC001A64FB689B68B3F5004F0FD1FB681B6870
:1033BC001A68FB681B6822F040021A60FB681B68E5
:1033CC001A68FB681B6842F480421A60FB681B6831
:1033DC001B6803F04003402B07D0FB681B681A687E
:1033EC00FB681B6842F040021A60FB68DB68B3F5AF
:1033FC00006F52D1FB685B68002B02D07B8B012BDA
:10340C0045D1FB681B6B1A88FB681B68DA60FB688C
:10341C001B6B9A1CFB681A63FB68DB8E9BB2013B2F
:10342C009AB2FB68DA8632E0FB681B689B6803F093
:10343C000203022B12D1FB681B6B1A88FB681B68FA
:10344C00DA60FB681B6B9A1CFB681A63FB68DB8EEB
:10345C009BB2013B9AB2FB68DA8618E0FFF718F8CA
:10346C000246FB69D31A3A689A4203D83B68B3F117
:10347C00FF3F02D13B68002B09D1FB68012283F886
:10348C005120FB68002283F85020032382E0FB6864
:10349C00DB8E9BB2002BC7D153E0FB685B68002B23
:1034AC0002D07B8B012B47D1FB681A6BFB681B6826
:1034BC000C3312781A70FB681B6B5A1CFB681A636E
:1034CC00FB68DB8E9BB2013B9AB2FB68DA8633E079
:1034DC00FB681B689B6803F00203022B13D1FB688B
:1034EC001A6BFB681B680C3312781A70FB681B6B29
:1034FC005A1CFB681A63FB68DB8E9BB2013B9AB2C9
:10350C00FB68DA8618E0FEF7C3FF0246FB69D31AA4
:10351C003A689A4203D83B68B3F1FF3F02D13B684B
:10352C00002B09D1FB68012283F85120FB68002293
:10353C0083F8502003232DE0FB68DB8E9BB2002B1D
:10354C00C6D1FA693968F86800F05AFA0346002BBC
:10355C0002D0FB6820225A65FB689B68002B0AD1BD
:10356C0000237B61FB681B68DB687B61FB681B6865
:10357C009B687B617B69FB68012283F85120FB68A7
:10358C00002283F85020FB685B6D002B01D00123D7
:10359C0000E0002318462037BD4680BD80B58AB0B8
:1035AC0000AFF860B9607A607B8001237B62FEF724
:1035BC006FFF3862FB6893F85130FB77FB685B68F0
:1035CC00BB617B88FB82FB7F012B0CD0BB69B3F505
:1035DC00827F06D1FB689B68002B02D1FB7F042BFA
:1035EC0001D002237FE1BB68002B05D07B68002B48
:1035FC0002D07B88002B01D1012374E1FB6893F886
:10360C005030012B01D102236DE1FB68012283F8BC
:10361C005020FB6893F85130DBB2042B03D0FB68CD
:10362C00052283F85120FB6800225A65FB687A68F2
:10363C009A63FB687A88DA87FB687A889A87FB68D2
:10364C00BA681A63FB687A88DA86FB687A889A8685
:10365C00FB6800221A64FB6800225A64FB681B6832
:10366C001B6803F04003402B07D0FB681B681A68EB
:10367C00FB681B6842F040021A60FB68DB68B3F51C
:10368C00006F7ED1FB685B68002B02D0FB8A012B9C
:10369C006CD1FB681B6B1A88FB681B68DA60FB68D3
:1036AC001B6B9A1CFB681A63FB68DB8E9BB2013B9D
:1036BC009AB2FB68DA8659E0FB681B689B6803F0DA
:1036CC000203022B1BD1FB68DB8E9BB2002B16D0A6
:1036DC007B6A012B13D1FB681B6B1A88FB681B6878
:1036EC00DA60FB681B6B9A1CFB681A63FB68DB8E49
:1036FC009BB2013B9AB2FB68DA8600237B62FB68C3
:10370C001B689B6803F00103012B19D1FB68DB8F4D
:10371C009BB2002B14D0FB681B68DA68FB689B6BB0
:10372C0092B21A80FB689B6B9A1CFB689A63FB68CD
:10373C00DB8F9BB2013B9AB2FB68DA8701237B6279
:10374C00FEF7A6FE02463B6AD31A3A6B9A420DD894
:10375C003B6BB3F1FF3F09D0FB68012283F851208A
:10376C00FB68002283F850200323BCE0FB68DB8E4F
:10377C009BB2002BA0D1FB68DB8F9BB2002B9BD1A3
:10378C0082E0FB685B68002B02D0FB8A012B71D1B5
:10379C00FB681A6BFB681B680C3312781A70FB6899
:1037AC001B6B5A1CFB681A63FB68DB8E9BB2013BDC
:1037BC009AB2FB68DA865DE0FB681B689B6803F0D5
:1037CC000203022B1CD1FB68DB8E9BB2002B17D0A3
:1037DC007B6A012B14D1FB681A6BFB681B680C33DA
:1037EC0012781A70FB681B6B5A1CFB681A63FB6817
:1037FC00DB8E9BB2013B9AB2FB68DA8600237B62BC
:10380C00FB681B689B6803F00103012B19D1FB6853
:10381C00DB8F9BB2002B14D0FB681B68DA68FB684B
:10382C009B6BD2B21A70FB689B6B5A1CFB689A6339
:10383C00FB68DB8F9BB2013B9AB2FB68DA870123F2
:10384C007B62FEF725FE02463B6AD31A3A6B9A421C
:10385C0003D83B6BB3F1FF3F02D13B6B002B09D17B
:10386C00FB68012283F85120FB68002283F850206A
:10387C00032338E0FB68DB8E9BB2002B9CD1FB68EA
:10388C00DB8F9BB2002B97D13A6A396BF86800F04A
:10389C00B7F80346002B08D0FB6820225A65FB685A
:1038AC00002283F8502001231DE0FB689B68002B4D
:1038BC000AD100233B61FB681B68DB683B61FB683A
:1038CC001B689B683B613B69FB68012283F85120B4
:1038DC00FB68002283F85020FB685B6D002B01D045
:1038EC00012300E0002318462837BD4680BD0000A8
:1038FC0080B588B000AFF860B9603B601346FB71CF
:10390C00FEF7C6FD0246BB6A9B1A3A681344FB617C
:10391C00FEF7BEFDB861394B1B685B011B0DFA69E4
:10392C0002FB03F37B6154E03B68B3F1FF3F50D0E3
:10393C00FEF7AEFD0246BB69D31AFA699A4202D968
:10394C00FB69002B3DD1FB681B685A68FB681B6840
:10395C0022F0E0025A60FB685B68B3F5827F11D1FC
:10396C00FB689B68B3F5004F04D0FB689B68B3F50C
:10397C00806F07D1FB681B681A68FB681B6822F014
:10398C0040021A60FB689B6AB3F5005F0FD1FB68BD
:10399C001B681A68FB681B6822F400521A60FB68EB
:1039AC001B681A68FB681B6842F400521A60FB68BB
:1039BC00012283F85120FB68002283F85020032356
:1039CC0017E07B69002B01D10023FB617B69013B74
:1039DC007B61FB681B689A68BB681340BA689A42A3
:1039EC000CBF01230023DBB21A46FB799A429BD110
:1039FC00002318462037BD4680BD00BF04000020C0
:103A0C0080B586B002AFF860B9607A607B680093CD
:103A1C00BB6801220221F868FFF76AFF0346002BFE
:103A2C0007D0FB685B6D43F02002FB685A650323EB
:103A3C0013E07B680093BB6800228021F868FFF7D5
:103A4C0057FF0346002B07D0FB685B6D43F0200249
:103A5C00FB685A65032300E0002318461037BD4667
:103A6C0080BD80B582B000AF78607B68002B01D13F
:103A7C00012342E07B6893F84130DBB2002B06D186
:103A8C007B68002283F840207868FCF70DFF7B6888
:103A9C00242283F841207B681B68DA687B681B68EA
:103AAC0022F40052DA60786800F072F97B681B68C7
:103ABC001A697B681B6822F490421A617B681B6848
:103ACC005A697B681B6822F02A025A617B681B6862
:103ADC00DA687B681B6842F40052DA607B6800226B
:103AEC005A647B68202283F841207B68202283F86B
:103AFC0042207B6800225A63002318460837BD46D3
:103B0C0080BD80B58AB002AFF860B9603B601346E7
:103B1C00FB8000237B61FB6893F84130DBB2202BE8
:103B2C0075D1BB68002B02D0FB88002B01D101237F
:103B3C006EE0FB6800225A64FB68212283F8412066
:103B4C00FEF7A6FC7861FB68FA889A84FB68FA8811
:103B5C00DA84FB689B68B3F5805F08D1FB681B694E
:103B6C00002B04D10023FB61BB68BB6103E0BB6885
:103B7C00FB610023BB612EE03B6800937B69002254
:103B8C008021F86800F048F80346002B05D0FB684C
:103B9C00202283F8412003233AE0FB69002B0BD150
:103BAC00BB691B881A46FB681B68C2F308025A6083
:103BBC00BB690233BB6107E0FB691A78FB681B68C1
:103BCC005A60FB690133FB61FB68DB8C9BB2013BE8
:103BDC009AB2FB68DA84FB68DB8C9BB2002BCBD1EE
:103BEC003B6800937B6900224021F86800F014F8D0
:103BFC000346002B05D0FB68202283F841200323C9
:103C0C0006E0FB68202283F84120002300E0022319
:103C1C0018462037BD4680BD80B586B000AFF86031
:103C2C00B9603B601346FB713BE03B6AB3F1FF3F6D
:103C3C0037D0FEF72DFC02463B68D31A3A6A9A42FB
:103C4C0002D33B6A002B01D103233AE0FB681B68CB
:103C5C00DB6803F00403002B23D0BB68802B20D03F
:103C6C00BB68402B1DD0FB681B681B6803F0080366
:103C7C00082B16D100237B61FB681B681B687B61DA
:103C8C00FB681B685B687B617B69F86800F01DF85A
:103C9C00FB6808225A64FB68002283F84020012349
:103CAC000FE0FB681B681A68BB681340BA689A423D
:103CBC000CBF01230023DBB21A46FB799A42B4D025
:103CCC00002318461837BD4680BD80B495B000AFB0
:103CDC0078607B681B680C337B637B6B53E8003F1D
:103CEC003B633B6B23F49073FB647B681B680C3366
:103CFC00FA6C3A64FB63F96B3A6C41E80023BB63E2
:103D0C00BB6B002BE5D17B681B6814333B623B6AB1
:103D1C0053E8003FFB61FB6923F00103BB647B6844
:103D2C001B681433BA6CFA62BB62B96AFA6A41E86E
:103D3C0000237B627B6A002BE5D17B681B6B012B1C
:103D4C0019D17B681B680C33FB60FB6853E8003FA0
:103D5C00BB60BB6823F010037B647B681B680C336F
:103D6C007A6CBA617B617969BA6941E800233B617D
:103D7C003B69002BE5D17B68202283F842207B68CD
:103D8C0000221A6300BF5437BD4680BC7047000048
:103D9C0080B584B000AF78607B681B681B6923F426
:103DAC0040517B68DA687B681B680A431A617B6840
:103DBC009A687B681B691A437B685B691343BB6019
:103DCC007B681B68DB6823F4B05323F00C037A6820
:103DDC001268B9680B43D3607B681B685B6923F47A
:103DEC0040717B689A697B681B680A435A617B68DF
:103DFC001B682C4A934203D1FFF7D6F9F86002E016
:103E0C00FFF7BEF9F860FA6813469B0013449A005A
:103E1C001A447B685B689B00B2FBF3F3224AA2FB5B
:103E2C0003235B091901FA6813469B0013449A009B
:103E3C001A447B685B689B00B2FBF3F21A4BA3FB42
:103E4C0002035B09642000FB03F3D31A1B0132331A
:103E5C00154AA2FB03235B0903F0F0031944FA682B
:103E6C0013469B0013449A001A447B685B689B00C2
:103E7C00B2FBF3F20C4BA3FB02035B09642000FBC7
:103E8C0003F3D31A1B013233074AA2FB03235B094A
:103E9C0003F00F027B681B680A449A6000BF10375E
:103EAC00BD4680BD003801401F85EB510EB46FF04C
:103EBC00004110B500249DB01FAB029006900791F5
:103ECC0004910948094953F8042B0591006802A98B
:103EDC0001931B9400F0A8F9029B1C701DB0BDE867
:103EEC00104003B0704700BF400000200802FFFFE5
:103EFC0003460244934200D1704703F8011BF9E7D3
:103F0C000A7870B56AB970BD9A4209D10C4605465B
:103F1C0014F8013F002BF6D015F8016F9E42F7D034
:103F2C0001300378002BEFD11846ECE7014B1868F1
:103F3C00704700BF4000002070B500260C4D0D4CA2
:103F4C00641BA410A64209D100F076FC00260A4D91
:103F5C000A4C641BA410A64205D170BD55F8043B55
:103F6C0098470136EEE755F8043B98470136F2E7DF
:103F7C00E44A0008E44A0008E44A0008E84A000859
:103F8C007047704738B50546002940D051F8043CBD
:103F9C000C1F002BB8BFE41800F0DEF81C4A1368A5
:103FAC0033B9636014602846BDE8384000F0DAB8D5
:103FBC00A34208D9206821188B4201BF19685B689D
:103FCC0009182160EDE71A465B680BB1A342FAD9D8
:103FDC0011685018A0420BD120680144501883423C
:103FEC001160E0D118685B68084410605360DAE730
:103FFC0002D90C232B60D6E7206821188B4201BF15
:10400C0019685B680918216063605460CBE738BDA0
:10401C00C402002070B50F4E0C463168054611B92C
:10402C0000F0A8FB30602146284600F0A3FB431C9F
:10403C0003D14FF0FF34204670BDC41C24F00304A0
:10404C00A042F8D0211A284600F094FB0130F2D19E
:10405C00EFE700BFC00200202DE9F843CD1C25F08E
:10406C00030508350C2D38BF0C25002D064601DB49
:10407C00A94204D90C2333600020BDE8F883DFF893
:10408C00D48000F069F8D8F800301C4644BB2946AF
:10409C003046FFF7BFFF431C044658D1D8F8004008
:1040AC002746002F43D1002C4BD02368394630468D
:1040BC0004EB030900F05EFB814542D121683046D8
:1040CC006D1A2946FFF7A6FF01303AD023682B441E
:1040DC002360D8F800305A6862BBC8F800700FE053
:1040EC002268521B20D40B2A17D96119A3422560D0
:1040FC0018BF5960636808BFC8F8001062514B6064
:10410C00304600F02FF804F10B00231D20F00700BF
:10411C00C21A1CBF1B1AA350AFE76268A3420CBFA4
:10412C00C8F800205A60EBE723466468AEE73C46CB
:10413C007F68B6E71A465B68A342FBD10023536045
:10414C00DEE70C233046336000F00CF894E7056092
:10415C00D6E700BFC40200200148FFF711BF00BF23
:10416C00BC0200200148FFF70CBF00BFBC020020BE
:10417C002DE9F0471F468E688246BE420C4690469B
:10418C000B682DD8B1F90C2012F4906F26D065690C
:10419C00096905EB4505A3EB010905EBD5757B1CFE
:1041AC004B446D109D4238BF1D46530527D52946FB
:1041BC00FFF752FF064660B34A46216900F0F8FA51
:1041CC00A38923F4906343F08003A38126614E44BA
:1041DC0026603E466561A5EB0905A560BE4200D987
:1041EC003E4632464146206800F0AAFA0020A368F9
:1041FC009B1BA360236833442360BDE8F0872A46E9
:10420C0000F0E4FA06460028E0D150462169FFF799
:10421C00B9FE0C23CAF80030A3894FF0FF3043F0ED
:10422C004003A381E9E700002DE9F04F98468B8904
:10423C0007461B060D4614469DB010D50B6973B985
:10424C004021FFF709FF2860286130B90C233B603F
:10425C004FF0FF301DB0BDE8F08F40236B610023A1
:10426C00099320238DF8293030234FF00109CDF824
:10427C000C80DFF898818DF82A3023469A4613F883
:10428C00012B0AB1252AF9D1BAEB040B0BD05B46F2
:10429C00224629463846FFF76BFF013000F0A78015
:1042AC00099A5A4409929AF80030002B00F09F802A
:1042BC0000234FF0FF32CDE905230AF1010A0493E4
:1042CC0007938DF853301A935446052214F8011BAA
:1042DC004E4800F05FFA049AD8B9D00644BF2023A8
:1042EC008DF85330110744BF2B238DF853309AF8B7
:1042FC0000302A2B15D0544600204FF00A0C079A98
:10430C00214611F8013B303B092B4BD9B0B1079238
:10431C0014E0A0EB080309FA03F31343A246049339
:10432C00D2E7039B191D1B680391002BBBBF5B429B
:10433C0042F0020207930793B8BF049223782E2B06
:10434C000AD163782A2B32D1039B02341A1D1B68C5
:10435C00039243EAE3730593DFF8B4A003225046BB
:10436C00217800F017FA38B14022049BA0EB0A0028
:10437C00824013430134049314F8011B0622254890
:10438C008DF8281000F006FA002836D0224B1BBB03
:10439C00039B073323F0070308330393099B334430
:1043AC0009936AE70C4601200CFB0232A8E70023B4
:1043BC004FF00A0C194601340593204610F8012BD6
:1043CC00303A092A03D9002BC6D00591C4E704461C
:1043DC0001230CFB0121F0E703AB00932A4638467E
:1043EC000E4B04A9AFF30080421C0646D6D1AB8914
:1043FC005B063FF52DAF09982CE703AB00932A46DB
:10440C003846064B04A900F07DF8EDE7A64A0008F3
:10441C00AC4A0008B04A0008000000007D410008CA
:10442C002DE9F047164698468A680B690746934271
:10443C00B8BF1346336091F843200C46DDF820904A
:10444C000AB1013333602368990642BF33680233E3
:10445C003360256815F0060506D104F1190AE368E6
:10446C0032689B1AAB422BDC94F843302268003B39
:10447C0018BF0123920630D44146384604F143025A
:10448C00C847013023D02368226903F00603042BAC
:10449C0014BF002533684FF0000608BFE56804F12F
:1044AC001A0408BFED1A54F8123C08BF25EAE5754A
:1044BC009342C4BF9B1AED18B5421AD1002008E0F4
:1044CC000123524641463846C847013003D14FF0CC
:1044DC00FF30BDE8F0870135C1E73020E11881F8E5
:1044EC0043005A1C94F845102244023382F84310BE
:1044FC00C2E70123224641463846C8470130E6D080
:10450C000136D9E72DE9FF470F7E9146782F80467B
:10451C000C469A460C9E01F1430207D8622F0AD82A
:10452C00002F00F0D180582F00F0B88004F1420623
:10453C0084F842703AE0A7F16303152BF6D801A179
:10454C0051F823F0A9450008BD450008394500087D
:10455C00394500083945000839450008BD450008B3
:10456C003945000839450008394500083945000827
:10457C00BB460008E74500087546000839450008A9
:10458C0039450008DD46000839450008E7450008B4
:10459C0039450008394500087D46000833681A1D66
:1045AC001B68326004F1420684F8423001239CE01F
:1045BC0033682068191D3160060601D51D6803E0BB
:1045CC004506FBD5B3F90050002D03DA2D236D42BF
:1045DC0084F843300A23584811E0216833680806F0
:1045EC0053F8045B02D4490648BFADB26F2F336059
:1045FC0014BF0A2308235048002184F8431066682E
:10460C00002EA66005DB21682E4321F004012160F9
:10461C004BD01646B5FBF3F103FB1157C75D06F8FB
:10462C00017D2F46BB420D46F4D9082B0BD12368D4
:10463C00DF0708D5236961689942DEBF302306F88D
:10464C00013C06F1FF36921B22614B462146404647
:10465C00CDF800A003AAFFF7E3FE01304AD14FF0DA
:10466C00FF3004B0BDE8F087236843F020032360DB
:10467C007827324884F84570236831681F0651F852
:10468C00045B02D45F0648BFADB23160D90744BFAA
:10469C0043F0200323601DB11023ADE72648E9E762
:1046AC00236823F020032360F6E71646BDE7336842
:1046BC002568181D616930602E061B6801D51960CC
:1046CC0002E06806FBD51980002316462361BCE77F
:1046DC00336800211A1D32601E686268304600F093
:1046EC0059F808B1801B606063682361002384F86B
:1046FC004330AAE73246494640462369D047013049
:10470C00ADD023689B0713D4E068039B9842B8BFD5
:10471C001846A6E70123324649464046D0470130A9
:10472C009DD00135E36803995B1AAB42F2DCEBE7F1
:10473C00002504F11906F5E7B74A0008C84A000835
:10474C00884210B501EB020402D98442234607D8F3
:10475C00431EA14208D011F8012B03F8012FF8E7F2
:10476C00014602448A4200D110BD13F8014D02F8F3
:10477C00014DF7E738B50023054D044608462B607C
:10478C00FCF70AF9431C02D12B6803B1236038BD36
:10479C00B8020020034610B5C9B202449342184631
:1047AC0001D1002003E0047801338C42F6D110BD16
:1047BC000A44914200F1FF3300D1704710B511F853
:1047CC00014B914203F8014FF9D110BD2DE9F04195
:1047DC00074614460D4621B91146BDE8F041FFF7D6
:1047EC003BBC2AB9FFF7CEFB25462846BDE8F08135
:1047FC0000F01AF88442064602D8B4EB500FF4D8F5
:10480C0021463846FFF728FC804608B94546ECE7B8
:10481C00B4422246294628BF3246FFF7C9FF294633
:10482C003846FFF7AFFBF1E751F8043C181F002B9B
:10483C00BCBF0B58C0187047F8B500BFF8BC08BC1B
:10484C009E467047F8B500BFF8BC08BC9E46704742
:10485C005245534554204C4F570D0A005245534571
:10486C005420484947480D0A0000000072656C61ED
:10487C00792D663130352D30310000007B22747972
:10488C007065223A2268656C6C6F222C2264657606
:10489C006963654964223A222573227D0A0000006F
:1048AC006F6E00006F6666007B2274797065223A29
:1048BC0022737461747573222C2264657669636546
:1048CC004964223A222573222C2272656C6179315B
:1048DC00223A222573227D0A0000000052583A2009
:1048EC00000000000D0A00002274797065223A2243
:1048FC00636F6D6D616E6422000000002261637451
:10490C00696F6E223A2272656C61795F73657422ED
:10491C00000000002272656C6179223A31000000BF
:10492C00227374617465223A226F6E2200000000BB
:10493C00434D44204F4E0D0A000000007B22747939
:10494C007065223A2261636B222C2272656C61794C
:10495C0031223A226F6E227D0A00000022737461AC
:10496C007465223A226F666622000000434D442093
:10497C004F46460D0A0000007B2274797065223A7E
:10498C002261636B222C2272656C617931223A228E
:10499C006F6666227D0A0000534F434B45542043FB
:1049AC004F4E4E4543540D0A00000000434F4E4EEF
:1049BC0045435445440D0A00434F4E4E4543542045
:1049CC004641494C0D0A00005245434F4E4E45435B
:1049DC00540D0A00494E49542053544152540D0A67
:1049EC0000000000535049204F4B0D0A00000000FE
:1049FC00573535303020494E4954204F4B0D0A0065
:104A0C0056455253494F4E3A203078253032580D86
:104A1C000A0000004E4554204F4B0D0A00000000C8
:104A2C004C414E204F4B0D0A000000004C414E20D3
:104A3C004641494C0D0A0000020202020202020227
:104A4C007B2274797065223A226862227D0A00000A
:104A5C0048454C4C4F0D0A000008DC112233C0A80D
:104A6C001F32FFFFFF00C0A81F0108080808010043
:104A7C000000000000000000010203040607080902
:104A8C0000000000010203040203040506070809E4
:104A9C000A0B0C0D0E0F10100102232D302B2000D1
:104AAC00686C4C00656667454647003031323334DC
:104ABC00353637383941424344454600303132337C
:104ACC00343536373839616263646566000000003E
:084ADC0070B6FF7F010000002D
:044AE4003101000894
:044AE8000D010008B4
:104AEC00C0A81F6500127A0000C0000000025735F4
:104AFC003530300000000000911900089D190008A5
:104B0C00A9190008B5190008C1190008D91900081D
:104B1C000000000000000000100000000100000078
:104B2C00440000200000000080010020E80100206B
:104B3C0050020020000000000000000000000000F7
:104B4C000000000000000000000000000000000059
:104B5C000000000000000000000000000000000049
:104B6C000000000000000000000000000000000039
:04000005080023A12B
:00000001FF
